{
  "contractName": "Tracking",
  "abi": [
    {
      "inputs": [],
      "payable": false,
      "stateMutability": "nonpayable",
      "type": "constructor"
    },
    {
      "anonymous": false,
      "inputs": [
        {
          "indexed": true,
          "internalType": "address",
          "name": "prod",
          "type": "address"
        },
        {
          "indexed": true,
          "internalType": "address",
          "name": "trans",
          "type": "address"
        },
        {
          "indexed": false,
          "internalType": "uint256",
          "name": "batch",
          "type": "uint256"
        }
      ],
      "name": "countMismatchDr",
      "type": "event"
    },
    {
      "anonymous": false,
      "inputs": [
        {
          "indexed": true,
          "internalType": "address",
          "name": "prod",
          "type": "address"
        },
        {
          "indexed": true,
          "internalType": "address",
          "name": "trans",
          "type": "address"
        },
        {
          "indexed": false,
          "internalType": "uint256",
          "name": "batch",
          "type": "uint256"
        }
      ],
      "name": "countMismatchTr",
      "type": "event"
    },
    {
      "anonymous": false,
      "inputs": [
        {
          "indexed": true,
          "internalType": "address",
          "name": "producer",
          "type": "address"
        },
        {
          "indexed": false,
          "internalType": "uint256",
          "name": "batchid",
          "type": "uint256"
        }
      ],
      "name": "manufacturedMedicine",
      "type": "event"
    },
    {
      "anonymous": false,
      "inputs": [
        {
          "indexed": true,
          "internalType": "address",
          "name": "prod",
          "type": "address"
        },
        {
          "indexed": true,
          "internalType": "address",
          "name": "trans",
          "type": "address"
        },
        {
          "indexed": false,
          "internalType": "uint256",
          "name": "batch",
          "type": "uint256"
        }
      ],
      "name": "sealBrokenDr",
      "type": "event"
    },
    {
      "anonymous": false,
      "inputs": [
        {
          "indexed": true,
          "internalType": "address",
          "name": "prod",
          "type": "address"
        },
        {
          "indexed": true,
          "internalType": "address",
          "name": "trans",
          "type": "address"
        },
        {
          "indexed": false,
          "internalType": "uint256",
          "name": "batch",
          "type": "uint256"
        }
      ],
      "name": "sealBrokenTr",
      "type": "event"
    },
    {
      "anonymous": false,
      "inputs": [
        {
          "indexed": true,
          "internalType": "address",
          "name": "userID",
          "type": "address"
        }
      ],
      "name": "userRegistered",
      "type": "event"
    },
    {
      "constant": true,
      "inputs": [
        {
          "internalType": "uint256",
          "name": "",
          "type": "uint256"
        }
      ],
      "name": "getBatchwithDID",
      "outputs": [
        {
          "internalType": "uint256",
          "name": "batchID",
          "type": "uint256"
        },
        {
          "internalType": "address",
          "name": "prodID",
          "type": "address"
        },
        {
          "internalType": "address",
          "name": "transID",
          "type": "address"
        },
        {
          "internalType": "address",
          "name": "distID",
          "type": "address"
        },
        {
          "internalType": "enum Tracking.State",
          "name": "itemState",
          "type": "uint8"
        },
        {
          "internalType": "string",
          "name": "medName",
          "type": "string"
        },
        {
          "internalType": "bool",
          "name": "sealOn",
          "type": "bool"
        },
        {
          "internalType": "uint256",
          "name": "timestamp",
          "type": "uint256"
        },
        {
          "internalType": "uint64",
          "name": "count",
          "type": "uint64"
        }
      ],
      "payable": false,
      "stateMutability": "view",
      "type": "function"
    },
    {
      "constant": true,
      "inputs": [
        {
          "internalType": "uint256",
          "name": "",
          "type": "uint256"
        }
      ],
      "name": "getBatchwithPID",
      "outputs": [
        {
          "internalType": "uint256",
          "name": "batchID",
          "type": "uint256"
        },
        {
          "internalType": "address",
          "name": "prodID",
          "type": "address"
        },
        {
          "internalType": "address",
          "name": "transID",
          "type": "address"
        },
        {
          "internalType": "address",
          "name": "distID",
          "type": "address"
        },
        {
          "internalType": "enum Tracking.State",
          "name": "itemState",
          "type": "uint8"
        },
        {
          "internalType": "string",
          "name": "medName",
          "type": "string"
        },
        {
          "internalType": "bool",
          "name": "sealOn",
          "type": "bool"
        },
        {
          "internalType": "uint256",
          "name": "timestamp",
          "type": "uint256"
        },
        {
          "internalType": "uint64",
          "name": "count",
          "type": "uint64"
        }
      ],
      "payable": false,
      "stateMutability": "view",
      "type": "function"
    },
    {
      "constant": true,
      "inputs": [
        {
          "internalType": "uint256",
          "name": "",
          "type": "uint256"
        }
      ],
      "name": "getBatchwithTID",
      "outputs": [
        {
          "internalType": "uint256",
          "name": "batchID",
          "type": "uint256"
        },
        {
          "internalType": "address",
          "name": "prodID",
          "type": "address"
        },
        {
          "internalType": "address",
          "name": "transID",
          "type": "address"
        },
        {
          "internalType": "address",
          "name": "distID",
          "type": "address"
        },
        {
          "internalType": "enum Tracking.State",
          "name": "itemState",
          "type": "uint8"
        },
        {
          "internalType": "string",
          "name": "medName",
          "type": "string"
        },
        {
          "internalType": "bool",
          "name": "sealOn",
          "type": "bool"
        },
        {
          "internalType": "uint256",
          "name": "timestamp",
          "type": "uint256"
        },
        {
          "internalType": "uint64",
          "name": "count",
          "type": "uint64"
        }
      ],
      "payable": false,
      "stateMutability": "view",
      "type": "function"
    },
    {
      "constant": true,
      "inputs": [
        {
          "internalType": "address",
          "name": "",
          "type": "address"
        },
        {
          "internalType": "uint256",
          "name": "",
          "type": "uint256"
        }
      ],
      "name": "ownerBatches",
      "outputs": [
        {
          "internalType": "uint256",
          "name": "batchID",
          "type": "uint256"
        },
        {
          "internalType": "address",
          "name": "prodID",
          "type": "address"
        },
        {
          "internalType": "address",
          "name": "transID",
          "type": "address"
        },
        {
          "internalType": "address",
          "name": "distID",
          "type": "address"
        },
        {
          "internalType": "enum Tracking.State",
          "name": "itemState",
          "type": "uint8"
        },
        {
          "internalType": "string",
          "name": "medName",
          "type": "string"
        },
        {
          "internalType": "bool",
          "name": "sealOn",
          "type": "bool"
        },
        {
          "internalType": "uint256",
          "name": "timestamp",
          "type": "uint256"
        },
        {
          "internalType": "uint64",
          "name": "count",
          "type": "uint64"
        }
      ],
      "payable": false,
      "stateMutability": "view",
      "type": "function"
    },
    {
      "constant": true,
      "inputs": [
        {
          "internalType": "address",
          "name": "",
          "type": "address"
        }
      ],
      "name": "userInfo",
      "outputs": [
        {
          "internalType": "address",
          "name": "userAdr",
          "type": "address"
        },
        {
          "internalType": "enum Tracking.Roles",
          "name": "role",
          "type": "uint8"
        }
      ],
      "payable": false,
      "stateMutability": "view",
      "type": "function"
    },
    {
      "constant": false,
      "inputs": [
        {
          "internalType": "address",
          "name": "_userID",
          "type": "address"
        },
        {
          "internalType": "enum Tracking.Roles",
          "name": "_role",
          "type": "uint8"
        }
      ],
      "name": "newUser",
      "outputs": [],
      "payable": false,
      "stateMutability": "nonpayable",
      "type": "function"
    },
    {
      "constant": false,
      "inputs": [
        {
          "internalType": "uint256",
          "name": "_batchID",
          "type": "uint256"
        },
        {
          "internalType": "string",
          "name": "_medName",
          "type": "string"
        },
        {
          "internalType": "bool",
          "name": "_sealOn",
          "type": "bool"
        },
        {
          "internalType": "uint64",
          "name": "_count",
          "type": "uint64"
        }
      ],
      "name": "addBatch",
      "outputs": [],
      "payable": false,
      "stateMutability": "nonpayable",
      "type": "function"
    },
    {
      "constant": true,
      "inputs": [
        {
          "internalType": "address",
          "name": "_prodID",
          "type": "address"
        }
      ],
      "name": "getBatchesOfProducer",
      "outputs": [
        {
          "components": [
            {
              "internalType": "uint256",
              "name": "batchID",
              "type": "uint256"
            },
            {
              "internalType": "address",
              "name": "prodID",
              "type": "address"
            },
            {
              "internalType": "address",
              "name": "transID",
              "type": "address"
            },
            {
              "internalType": "address",
              "name": "distID",
              "type": "address"
            },
            {
              "internalType": "enum Tracking.State",
              "name": "itemState",
              "type": "uint8"
            },
            {
              "internalType": "string",
              "name": "medName",
              "type": "string"
            },
            {
              "internalType": "bool",
              "name": "sealOn",
              "type": "bool"
            },
            {
              "internalType": "uint256",
              "name": "timestamp",
              "type": "uint256"
            },
            {
              "internalType": "uint64",
              "name": "count",
              "type": "uint64"
            }
          ],
          "internalType": "struct Tracking.Medicine[]",
          "name": "",
          "type": "tuple[]"
        }
      ],
      "payable": false,
      "stateMutability": "view",
      "type": "function"
    },
    {
      "constant": true,
      "inputs": [
        {
          "internalType": "uint256",
          "name": "_batchID",
          "type": "uint256"
        }
      ],
      "name": "getBatchInfo",
      "outputs": [
        {
          "components": [
            {
              "internalType": "uint256",
              "name": "batchID",
              "type": "uint256"
            },
            {
              "internalType": "address",
              "name": "prodID",
              "type": "address"
            },
            {
              "internalType": "address",
              "name": "transID",
              "type": "address"
            },
            {
              "internalType": "address",
              "name": "distID",
              "type": "address"
            },
            {
              "internalType": "enum Tracking.State",
              "name": "itemState",
              "type": "uint8"
            },
            {
              "internalType": "string",
              "name": "medName",
              "type": "string"
            },
            {
              "internalType": "bool",
              "name": "sealOn",
              "type": "bool"
            },
            {
              "internalType": "uint256",
              "name": "timestamp",
              "type": "uint256"
            },
            {
              "internalType": "uint64",
              "name": "count",
              "type": "uint64"
            }
          ],
          "internalType": "struct Tracking.Medicine",
          "name": "",
          "type": "tuple"
        }
      ],
      "payable": false,
      "stateMutability": "view",
      "type": "function"
    },
    {
      "constant": false,
      "inputs": [
        {
          "internalType": "uint256",
          "name": "_batchID",
          "type": "uint256"
        },
        {
          "internalType": "bool",
          "name": "_sealOn",
          "type": "bool"
        },
        {
          "internalType": "uint64",
          "name": "_count",
          "type": "uint64"
        }
      ],
      "name": "transportCheck",
      "outputs": [],
      "payable": false,
      "stateMutability": "nonpayable",
      "type": "function"
    },
    {
      "constant": false,
      "inputs": [
        {
          "internalType": "uint256",
          "name": "_batchID",
          "type": "uint256"
        },
        {
          "internalType": "bool",
          "name": "_sealOn",
          "type": "bool"
        },
        {
          "internalType": "uint64",
          "name": "_count",
          "type": "uint64"
        }
      ],
      "name": "distributorCheck",
      "outputs": [],
      "payable": false,
      "stateMutability": "nonpayable",
      "type": "function"
    }
  ],
  "bytecode": "0x608060405234801561001057600080fd5b5033600560006101000a81548173ffffffffffffffffffffffffffffffffffffffff021916908373ffffffffffffffffffffffffffffffffffffffff160217905550612a98806100616000396000f3fe608060405234801561001057600080fd5b50600436106100a95760003560e01c80637636a94c116100715780637636a94c146101af5780638e412ce4146101cb578063903f9b40146101e7578063c164f4641461021f578063d0f5c7711461023b578063fca686ce14610257576100a9565b8063127064e2146100ae5780631959a002146100de5780631a0058f51461010f5780635d39f3cb1461013f5780635e9b3ac114610177575b600080fd5b6100c860048036036100c39190810190612025565b61028f565b6040516100d591906126a4565b60405180910390f35b6100f860048036036100f39190810190612025565b610560565b60405161010692919061267b565b60405180910390f35b610129600480360361012491908101906120c6565b6105b1565b6040516101369190612746565b60405180910390f35b610159600480360361015491908101906120c6565b610811565b60405161016e99989796959493929190612783565b60405180910390f35b610191600480360361018c919081019061208a565b610985565b6040516101a699989796959493929190612783565b60405180910390f35b6101c960048036036101c4919081019061204e565b610b13565b005b6101e560048036036101e091908101906120ef565b610ca7565b005b61020160048036036101fc91908101906120c6565b611192565b60405161021699989796959493929190612783565b60405180910390f35b610239600480360361023491908101906120ef565b611306565b005b6102556004803603610250919081019061213e565b6117f1565b005b610271600480360361026c91908101906120c6565b611c6f565b60405161028699989796959493929190612783565b60405180910390f35b6060600160008373ffffffffffffffffffffffffffffffffffffffff1673ffffffffffffffffffffffffffffffffffffffff168152602001908152602001600020805480602002602001604051908101604052809291908181526020016000905b82821015610555578382906000526020600020906008020160405180610120016040529081600082015481526020016001820160009054906101000a900473ffffffffffffffffffffffffffffffffffffffff1673ffffffffffffffffffffffffffffffffffffffff1673ffffffffffffffffffffffffffffffffffffffff1681526020016002820160009054906101000a900473ffffffffffffffffffffffffffffffffffffffff1673ffffffffffffffffffffffffffffffffffffffff1673ffffffffffffffffffffffffffffffffffffffff1681526020016003820160009054906101000a900473ffffffffffffffffffffffffffffffffffffffff1673ffffffffffffffffffffffffffffffffffffffff1673ffffffffffffffffffffffffffffffffffffffff1681526020016003820160149054906101000a900460ff16600481111561043e57fe5b600481111561044957fe5b8152602001600482018054600181600116156101000203166002900480601f0160208091040260200160405190810160405280929190818152602001828054600181600116156101000203166002900480156104e65780601f106104bb576101008083540402835291602001916104e6565b820191906000526020600020905b8154815290600101906020018083116104c957829003601f168201915b505050505081526020016005820160009054906101000a900460ff16151515158152602001600682015481526020016007820160009054906101000a900467ffffffffffffffff1667ffffffffffffffff1667ffffffffffffffff1681525050815260200190600101906102f0565b505050509050919050565b60006020528060005260406000206000915090508060000160009054906101000a900473ffffffffffffffffffffffffffffffffffffffff16908060000160149054906101000a900460ff16905082565b6105b9611de3565b6002600083815260200190815260200160002060405180610120016040529081600082015481526020016001820160009054906101000a900473ffffffffffffffffffffffffffffffffffffffff1673ffffffffffffffffffffffffffffffffffffffff1673ffffffffffffffffffffffffffffffffffffffff1681526020016002820160009054906101000a900473ffffffffffffffffffffffffffffffffffffffff1673ffffffffffffffffffffffffffffffffffffffff1673ffffffffffffffffffffffffffffffffffffffff1681526020016003820160009054906101000a900473ffffffffffffffffffffffffffffffffffffffff1673ffffffffffffffffffffffffffffffffffffffff1673ffffffffffffffffffffffffffffffffffffffff1681526020016003820160149054906101000a900460ff16600481111561070257fe5b600481111561070d57fe5b8152602001600482018054600181600116156101000203166002900480601f0160208091040260200160405190810160405280929190818152602001828054600181600116156101000203166002900480156107aa5780601f1061077f576101008083540402835291602001916107aa565b820191906000526020600020905b81548152906001019060200180831161078d57829003601f168201915b505050505081526020016005820160009054906101000a900460ff16151515158152602001600682015481526020016007820160009054906101000a900467ffffffffffffffff1667ffffffffffffffff1667ffffffffffffffff16815250509050919050565b60036020528060005260406000206000915090508060000154908060010160009054906101000a900473ffffffffffffffffffffffffffffffffffffffff16908060020160009054906101000a900473ffffffffffffffffffffffffffffffffffffffff16908060030160009054906101000a900473ffffffffffffffffffffffffffffffffffffffff16908060030160149054906101000a900460ff1690806004018054600181600116156101000203166002900480601f0160208091040260200160405190810160405280929190818152602001828054600181600116156101000203166002900480156109485780601f1061091d57610100808354040283529160200191610948565b820191906000526020600020905b81548152906001019060200180831161092b57829003601f168201915b5050505050908060050160009054906101000a900460ff16908060060154908060070160009054906101000a900467ffffffffffffffff16905089565b6001602052816000526040600020818154811061099e57fe5b9060005260206000209060080201600091509150508060000154908060010160009054906101000a900473ffffffffffffffffffffffffffffffffffffffff16908060020160009054906101000a900473ffffffffffffffffffffffffffffffffffffffff16908060030160009054906101000a900473ffffffffffffffffffffffffffffffffffffffff16908060030160149054906101000a900460ff1690806004018054600181600116156101000203166002900480601f016020809104026020016040519081016040528092919081815260200182805460018160011615610100020316600290048015610ad65780601f10610aab57610100808354040283529160200191610ad6565b820191906000526020600020905b815481529060010190602001808311610ab957829003601f168201915b5050505050908060050160009054906101000a900460ff16908060060154908060070160009054906101000a900467ffffffffffffffff16905089565b3373ffffffffffffffffffffffffffffffffffffffff16600560009054906101000a900473ffffffffffffffffffffffffffffffffffffffff1673ffffffffffffffffffffffffffffffffffffffff1614610b6d57600080fd5b610b75611e88565b60405180604001604052808473ffffffffffffffffffffffffffffffffffffffff168152602001836003811115610ba857fe5b8152509050806000808573ffffffffffffffffffffffffffffffffffffffff1673ffffffffffffffffffffffffffffffffffffffff16815260200190815260200160002060008201518160000160006101000a81548173ffffffffffffffffffffffffffffffffffffffff021916908373ffffffffffffffffffffffffffffffffffffffff16021790555060208201518160000160146101000a81548160ff02191690836003811115610c5757fe5b02179055509050508273ffffffffffffffffffffffffffffffffffffffff167fbccbc36cc6dac185f9905c12b69a310c4d0b82bdfbc3bbbb8e3d2ff33c8176b060405160405180910390a2505050565b60016003811115610cb457fe5b6000803373ffffffffffffffffffffffffffffffffffffffff1673ffffffffffffffffffffffffffffffffffffffff16815260200190815260200160002060000160149054906101000a900460ff166003811115610d0e57fe5b14610d1857600080fd5b610d20611de3565b6002600085815260200190815260200160002060405180610120016040529081600082015481526020016001820160009054906101000a900473ffffffffffffffffffffffffffffffffffffffff1673ffffffffffffffffffffffffffffffffffffffff1673ffffffffffffffffffffffffffffffffffffffff1681526020016002820160009054906101000a900473ffffffffffffffffffffffffffffffffffffffff1673ffffffffffffffffffffffffffffffffffffffff1673ffffffffffffffffffffffffffffffffffffffff1681526020016003820160009054906101000a900473ffffffffffffffffffffffffffffffffffffffff1673ffffffffffffffffffffffffffffffffffffffff1673ffffffffffffffffffffffffffffffffffffffff1681526020016003820160149054906101000a900460ff166004811115610e6957fe5b6004811115610e7457fe5b8152602001600482018054600181600116156101000203166002900480601f016020809104026020016040519081016040528092919081815260200182805460018160011615610100020316600290048015610f115780601f10610ee657610100808354040283529160200191610f11565b820191906000526020600020905b815481529060010190602001808311610ef457829003601f168201915b505050505081526020016005820160009054906101000a900460ff16151515158152602001600682015481526020016007820160009054906101000a900467ffffffffffffffff1667ffffffffffffffff1667ffffffffffffffff16815250509050600181608001906004811115610f8557fe5b90816004811115610f9257fe5b8152505033816040019073ffffffffffffffffffffffffffffffffffffffff16908173ffffffffffffffffffffffffffffffffffffffff168152505082611084573373ffffffffffffffffffffffffffffffffffffffff16816020015173ffffffffffffffffffffffffffffffffffffffff167f838ea9483c8ccf88b5b1e9e4ea5cb3e0463e0a3668eb4fcada1f98992e2a5fe0866040516110349190612768565b60405180910390a36001151583151514611083576040517f08c379a000000000000000000000000000000000000000000000000000000000815260040161107a90612706565b60405180910390fd5b5b80610100015167ffffffffffffffff168267ffffffffffffffff1614611169573373ffffffffffffffffffffffffffffffffffffffff16816020015173ffffffffffffffffffffffffffffffffffffffff167f5d48384949d505af6c9249b5bc8790507dc633c75f8748aca706a12e5393bdeb866040516111059190612768565b60405180910390a380610100015167ffffffffffffffff168267ffffffffffffffff1614611168576040517f08c379a000000000000000000000000000000000000000000000000000000000815260040161115f906126c6565b60405180910390fd5b5b60028160800190600481111561117b57fe5b9081600481111561118857fe5b8152505050505050565b60046020528060005260406000206000915090508060000154908060010160009054906101000a900473ffffffffffffffffffffffffffffffffffffffff16908060020160009054906101000a900473ffffffffffffffffffffffffffffffffffffffff16908060030160009054906101000a900473ffffffffffffffffffffffffffffffffffffffff16908060030160149054906101000a900460ff1690806004018054600181600116156101000203166002900480601f0160208091040260200160405190810160405280929190818152602001828054600181600116156101000203166002900480156112c95780601f1061129e576101008083540402835291602001916112c9565b820191906000526020600020905b8154815290600101906020018083116112ac57829003601f168201915b5050505050908060050160009054906101000a900460ff16908060060154908060070160009054906101000a900467ffffffffffffffff16905089565b6002600381111561131357fe5b6000803373ffffffffffffffffffffffffffffffffffffffff1673ffffffffffffffffffffffffffffffffffffffff16815260200190815260200160002060000160149054906101000a900460ff16600381111561136d57fe5b1461137757600080fd5b61137f611de3565b6002600085815260200190815260200160002060405180610120016040529081600082015481526020016001820160009054906101000a900473ffffffffffffffffffffffffffffffffffffffff1673ffffffffffffffffffffffffffffffffffffffff1673ffffffffffffffffffffffffffffffffffffffff1681526020016002820160009054906101000a900473ffffffffffffffffffffffffffffffffffffffff1673ffffffffffffffffffffffffffffffffffffffff1673ffffffffffffffffffffffffffffffffffffffff1681526020016003820160009054906101000a900473ffffffffffffffffffffffffffffffffffffffff1673ffffffffffffffffffffffffffffffffffffffff1673ffffffffffffffffffffffffffffffffffffffff1681526020016003820160149054906101000a900460ff1660048111156114c857fe5b60048111156114d357fe5b8152602001600482018054600181600116156101000203166002900480601f0160208091040260200160405190810160405280929190818152602001828054600181600116156101000203166002900480156115705780601f1061154557610100808354040283529160200191611570565b820191906000526020600020905b81548152906001019060200180831161155357829003601f168201915b505050505081526020016005820160009054906101000a900460ff16151515158152602001600682015481526020016007820160009054906101000a900467ffffffffffffffff1667ffffffffffffffff1667ffffffffffffffff168152505090506003816080019060048111156115e457fe5b908160048111156115f157fe5b8152505033816060019073ffffffffffffffffffffffffffffffffffffffff16908173ffffffffffffffffffffffffffffffffffffffff1681525050826116e3573373ffffffffffffffffffffffffffffffffffffffff16816020015173ffffffffffffffffffffffffffffffffffffffff167ff2171d69589e24ca14d3bac8f65decb8eb0495880d97c3b41619445b26e35a30866040516116939190612768565b60405180910390a360011515831515146116e2576040517f08c379a00000000000000000000000000000000000000000000000000000000081526004016116d9906126e6565b60405180910390fd5b5b80610100015167ffffffffffffffff168267ffffffffffffffff16146117c8573373ffffffffffffffffffffffffffffffffffffffff16816020015173ffffffffffffffffffffffffffffffffffffffff167fb2eb0701da853b6279c2d390de0c60b266f0ee0d080f3b1add4d7b7135ba6b2f866040516117649190612768565b60405180910390a380610100015167ffffffffffffffff168267ffffffffffffffff16146117c7576040517f08c379a00000000000000000000000000000000000000000000000000000000081526004016117be90612726565b60405180910390fd5b5b6004816080019060048111156117da57fe5b908160048111156117e757fe5b8152505050505050565b6117f9611de3565b6040518061012001604052808681526020013373ffffffffffffffffffffffffffffffffffffffff168152602001600073ffffffffffffffffffffffffffffffffffffffff168152602001600073ffffffffffffffffffffffffffffffffffffffff1681526020016000600481111561186e57fe5b815260200185815260200184151581526020014281526020018367ffffffffffffffff168152509050600160003373ffffffffffffffffffffffffffffffffffffffff1673ffffffffffffffffffffffffffffffffffffffff16815260200190815260200160002081908060018154018082558091505090600182039060005260206000209060080201600090919290919091506000820151816000015560208201518160010160006101000a81548173ffffffffffffffffffffffffffffffffffffffff021916908373ffffffffffffffffffffffffffffffffffffffff16021790555060408201518160020160006101000a81548173ffffffffffffffffffffffffffffffffffffffff021916908373ffffffffffffffffffffffffffffffffffffffff16021790555060608201518160030160006101000a81548173ffffffffffffffffffffffffffffffffffffffff021916908373ffffffffffffffffffffffffffffffffffffffff16021790555060808201518160030160146101000a81548160ff02191690836004811115611a0557fe5b021790555060a0820151816004019080519060200190611a26929190611ec3565b5060c08201518160050160006101000a81548160ff02191690831515021790555060e082015181600601556101008201518160070160006101000a81548167ffffffffffffffff021916908367ffffffffffffffff16021790555050505080600260008781526020019081526020016000206000820151816000015560208201518160010160006101000a81548173ffffffffffffffffffffffffffffffffffffffff021916908373ffffffffffffffffffffffffffffffffffffffff16021790555060408201518160020160006101000a81548173ffffffffffffffffffffffffffffffffffffffff021916908373ffffffffffffffffffffffffffffffffffffffff16021790555060608201518160030160006101000a81548173ffffffffffffffffffffffffffffffffffffffff021916908373ffffffffffffffffffffffffffffffffffffffff16021790555060808201518160030160146101000a81548160ff02191690836004811115611b9b57fe5b021790555060a0820151816004019080519060200190611bbc929190611ec3565b5060c08201518160050160006101000a81548160ff02191690831515021790555060e082015181600601556101008201518160070160006101000a81548167ffffffffffffffff021916908367ffffffffffffffff1602179055509050503373ffffffffffffffffffffffffffffffffffffffff167fbb39e08324d3be4059f7da30931e63b821bab15345b175e9db265f986ffb65e186604051611c609190612768565b60405180910390a25050505050565b60026020528060005260406000206000915090508060000154908060010160009054906101000a900473ffffffffffffffffffffffffffffffffffffffff16908060020160009054906101000a900473ffffffffffffffffffffffffffffffffffffffff16908060030160009054906101000a900473ffffffffffffffffffffffffffffffffffffffff16908060030160149054906101000a900460ff1690806004018054600181600116156101000203166002900480601f016020809104026020016040519081016040528092919081815260200182805460018160011615610100020316600290048015611da65780601f10611d7b57610100808354040283529160200191611da6565b820191906000526020600020905b815481529060010190602001808311611d8957829003601f168201915b5050505050908060050160009054906101000a900460ff16908060060154908060070160009054906101000a900467ffffffffffffffff16905089565b60405180610120016040528060008152602001600073ffffffffffffffffffffffffffffffffffffffff168152602001600073ffffffffffffffffffffffffffffffffffffffff168152602001600073ffffffffffffffffffffffffffffffffffffffff16815260200160006004811115611e5a57fe5b81526020016060815260200160001515815260200160008152602001600067ffffffffffffffff1681525090565b6040518060400160405280600073ffffffffffffffffffffffffffffffffffffffff16815260200160006003811115611ebd57fe5b81525090565b828054600181600116156101000203166002900490600052602060002090601f016020900481019282601f10611f0457805160ff1916838001178555611f32565b82800160010185558215611f32579182015b82811115611f31578251825591602001919060010190611f16565b5b509050611f3f9190611f43565b5090565b611f6591905b80821115611f61576000816000905550600101611f49565b5090565b90565b600081359050611f77816129e9565b92915050565b600081359050611f8c81612a00565b92915050565b600081359050611fa181612a17565b92915050565b600082601f830112611fb857600080fd5b8135611fcb611fc682612844565b612817565b91508082526020830160208301858383011115611fe757600080fd5b611ff283828461297c565b50505092915050565b60008135905061200a81612a27565b92915050565b60008135905061201f81612a3e565b92915050565b60006020828403121561203757600080fd5b600061204584828501611f68565b91505092915050565b6000806040838503121561206157600080fd5b600061206f85828601611f68565b925050602061208085828601611f92565b9150509250929050565b6000806040838503121561209d57600080fd5b60006120ab85828601611f68565b92505060206120bc85828601611ffb565b9150509250929050565b6000602082840312156120d857600080fd5b60006120e684828501611ffb565b91505092915050565b60008060006060848603121561210457600080fd5b600061211286828701611ffb565b935050602061212386828701611f7d565b925050604061213486828701612010565b9150509250925092565b6000806000806080858703121561215457600080fd5b600061216287828801611ffb565b945050602085013567ffffffffffffffff81111561217f57600080fd5b61218b87828801611fa7565b935050604061219c87828801611f7d565b92505060606121ad87828801612010565b91505092959194509250565b60006121c5838361257a565b905092915050565b6121d6816128d6565b82525050565b6121e5816128d6565b82525050565b60006121f682612880565b61220081856128a3565b93508360208202850161221285612870565b8060005b8581101561224e578484038952815161222f85826121b9565b945061223a83612896565b925060208a01995050600181019050612216565b50829750879550505050505092915050565b612269816128e8565b82525050565b612278816128e8565b82525050565b61228781612958565b82525050565b6122968161296a565b82525050565b6122a58161296a565b82525050565b60006122b68261288b565b6122c081856128b4565b93506122d081856020860161298b565b6122d9816129be565b840191505092915050565b60006122ef8261288b565b6122f981856128c5565b935061230981856020860161298b565b612312816129be565b840191505092915050565b600061232a6030836128c5565b91507f546865206d65646963696e6520636f756e7420697320666f756e642077726f6e60008301527f67206174207472616e73706f72746f72000000000000000000000000000000006020830152604082019050919050565b60006123906023836128c5565b91507f5365616c20697320666f756e642062726f6b656e20627920446973747269627560008301527f746f7200000000000000000000000000000000000000000000000000000000006020830152604082019050919050565b60006123f66023836128c5565b91507f5365616c20697320666f756e642062726f6b656e206279205472616e73706f7260008301527f74657200000000000000000000000000000000000000000000000000000000006020830152604082019050919050565b600061245c602f836128c5565b91507f546865206d65646963696e6520636f756e74206973206d69736d61746368656460008301527f206174206469737472696275746f7200000000000000000000000000000000006020830152604082019050919050565b6000610120830160008301516124ce600086018261263f565b5060208301516124e160208601826121cd565b5060408301516124f460408601826121cd565b50606083015161250760608601826121cd565b50608083015161251a608086018261228d565b5060a083015184820360a086015261253282826122ab565b91505060c083015161254760c0860182612260565b5060e083015161255a60e086018261263f565b5061010083015161256f61010086018261265d565b508091505092915050565b600061012083016000830151612593600086018261263f565b5060208301516125a660208601826121cd565b5060408301516125b960408601826121cd565b5060608301516125cc60608601826121cd565b5060808301516125df608086018261228d565b5060a083015184820360a08601526125f782826122ab565b91505060c083015161260c60c0860182612260565b5060e083015161261f60e086018261263f565b5061010083015161263461010086018261265d565b508091505092915050565b6126488161293a565b82525050565b6126578161293a565b82525050565b61266681612944565b82525050565b61267581612944565b82525050565b600060408201905061269060008301856121dc565b61269d602083018461227e565b9392505050565b600060208201905081810360008301526126be81846121eb565b905092915050565b600060208201905081810360008301526126df8161231d565b9050919050565b600060208201905081810360008301526126ff81612383565b9050919050565b6000602082019050818103600083015261271f816123e9565b9050919050565b6000602082019050818103600083015261273f8161244f565b9050919050565b6000602082019050818103600083015261276081846124b5565b905092915050565b600060208201905061277d600083018461264e565b92915050565b600061012082019050612799600083018c61264e565b6127a6602083018b6121dc565b6127b3604083018a6121dc565b6127c060608301896121dc565b6127cd608083018861229c565b81810360a08301526127df81876122e4565b90506127ee60c083018661226f565b6127fb60e083018561264e565b61280961010083018461266c565b9a9950505050505050505050565b6000604051905081810181811067ffffffffffffffff8211171561283a57600080fd5b8060405250919050565b600067ffffffffffffffff82111561285b57600080fd5b601f19601f8301169050602081019050919050565b6000819050602082019050919050565b600081519050919050565b600081519050919050565b6000602082019050919050565b600082825260208201905092915050565b600082825260208201905092915050565b600082825260208201905092915050565b60006128e18261291a565b9050919050565b60008115159050919050565b6000819050612902826129cf565b919050565b6000819050612915826129dc565b919050565b600073ffffffffffffffffffffffffffffffffffffffff82169050919050565b6000819050919050565b600067ffffffffffffffff82169050919050565b6000612963826128f4565b9050919050565b600061297582612907565b9050919050565b82818337600083830152505050565b60005b838110156129a957808201518184015260208101905061298e565b838111156129b8576000848401525b50505050565b6000601f19601f8301169050919050565b600481106129d957fe5b50565b600581106129e657fe5b50565b6129f2816128d6565b81146129fd57600080fd5b50565b612a09816128e8565b8114612a1457600080fd5b50565b60048110612a2457600080fd5b50565b612a308161293a565b8114612a3b57600080fd5b50565b612a4781612944565b8114612a5257600080fd5b5056fea365627a7a723158202f263a2ca2a6effdaeb6b9885982631d9c5776fdb18206ca2bf3ec86de41785f6c6578706572696d656e74616cf564736f6c63430005100040",
  "source": "// SPDX-License-Identifier: MIT\r\n\r\npragma experimental ABIEncoderV2;\r\n\r\ncontract Tracking{\r\n\r\n    enum State{\r\n        produced,\r\n        receivedByTr,\r\n        inTransport,\r\n        receivedByDr,\r\n        toConsumers\r\n    }\r\n\r\n    enum Roles{\r\n        manufacturer,\r\n        transport,\r\n        distributor,\r\n        noRole\r\n    }\r\n\r\n\r\n    struct user {\r\n        address userAdr;\r\n        Roles role;\r\n    }\r\n\r\n    struct Medicine{\r\n        uint256 batchID;\r\n        address prodID;\r\n        address transID;\r\n        address distID;\r\n        State itemState;\r\n        string medName;\r\n        bool sealOn;\r\n        uint256 timestamp;\r\n        uint64 count;\r\n    }\r\n\r\n\r\n    mapping(address => user) public userInfo;\r\n    mapping(address => Medicine[]) public ownerBatches;\r\n    mapping(uint256 => Medicine) public getBatchwithPID;\r\n    mapping(uint256 => Medicine) public getBatchwithTID;\r\n    mapping(uint256 => Medicine) public getBatchwithDID;\r\n\r\n    address Owner;\r\n\r\n\r\n    constructor() public {\r\n        Owner = msg.sender;\r\n    }\r\n\r\n\r\n    modifier onlyOwner() {\r\n        require(Owner == msg.sender);\r\n        _;\r\n    }\r\n\r\n    modifier checkUser(address addr) {\r\n        require(addr == msg.sender);\r\n        _;\r\n    }\r\n\r\n    modifier onlyManufacturer(){\r\n        require(userInfo[msg.sender].role == Roles.manufacturer);\r\n        _;\r\n    }\r\n\r\n    modifier onlyTransport(){\r\n        require(userInfo[msg.sender].role == Roles.transport);\r\n        _;\r\n    }\r\n\r\n    modifier onlyDistributor(){\r\n        require(userInfo[msg.sender].role == Roles.distributor);\r\n        _;\r\n    }\r\n\r\n    modifier checkState(uint256 _batchID, State _state){\r\n        Medicine memory batch=getBatchwithPID[_batchID];\r\n        require(getBatchwithPID[_batchID].itemState == _state);\r\n        _;\r\n    }\r\n\r\n\r\n    event userRegistered(address indexed userID);\r\n    event manufacturedMedicine(address indexed producer, uint256 batchid);\r\n    event sealBrokenTr(address indexed prod, address indexed trans, uint256 batch);\r\n    event countMismatchTr(address indexed prod, address indexed trans, uint256 batch);\r\n    event sealBrokenDr(address indexed prod, address indexed trans, uint256 batch);\r\n    event countMismatchDr(address indexed prod, address indexed trans, uint256 batch);\r\n\r\n\r\n    function newUser (address _userID, Roles _role) public onlyOwner {\r\n        user memory newser = user({\r\n        userAdr : _userID,\r\n        role : _role\r\n        });\r\n        userInfo[_userID] = newser;\r\n        emit userRegistered(_userID);\r\n    }\r\n\r\n    function addBatch(uint256 _batchID, string memory _medName, bool _sealOn,uint64 _count) public {\r\n        Medicine memory newMedicine = Medicine({\r\n        batchID: _batchID,\r\n        prodID: msg.sender,\r\n        transID: address(0),\r\n        distID: address(0),\r\n        itemState: State.produced,\r\n        medName: _medName,\r\n        sealOn: _sealOn,\r\n        timestamp: block.timestamp,\r\n        count: _count\r\n        });\r\n        ownerBatches[msg.sender].push(newMedicine);\r\n        getBatchwithPID[_batchID]=newMedicine;\r\n        emit manufacturedMedicine(msg.sender,_batchID);\r\n    }\r\n\r\n    function getBatchesOfProducer(address _prodID) public view returns(Medicine[] memory){\r\n        return ownerBatches[_prodID];\r\n    }\r\n\r\n    function getBatchInfo(uint256 _batchID) public view returns (Medicine memory){\r\n        return getBatchwithPID[_batchID];\r\n    }\r\n\r\n\r\n\r\n    function transportCheck (uint256 _batchID, bool _sealOn, uint64 _count) onlyTransport public {\r\n\r\n        Medicine memory batch=getBatchwithPID[_batchID];\r\n        batch.itemState = State.receivedByTr;\r\n        batch.transID = msg.sender;\r\n        if(!_sealOn){\r\n            emit sealBrokenTr(batch.prodID, msg.sender, _batchID);\r\n            require(_sealOn==true, \"Seal is found broken by Transporter\");\r\n        }\r\n\r\n        if(_count != batch.count){\r\n            emit countMismatchTr(batch.prodID, msg.sender, _batchID);\r\n            require(_count == batch.count, \"The medicine count is found wrong at transportor\");\r\n        }\r\n        batch.itemState= State.inTransport;\r\n    }\r\n\r\n\r\n    function distributorCheck(uint256 _batchID, bool _sealOn, uint64 _count) onlyDistributor public {\r\n\r\n        Medicine memory batch=getBatchwithPID[_batchID];\r\n        batch.itemState = State.receivedByDr;\r\n        batch.distID = msg.sender;\r\n        if(!_sealOn){\r\n            emit sealBrokenDr(batch.prodID, msg.sender, _batchID);\r\n            require(_sealOn==true, \"Seal is found broken by Distributor\");\r\n        }\r\n\r\n        if(_count != batch.count){\r\n            emit countMismatchDr(batch.prodID, msg.sender, _batchID);\r\n            require(_count == batch.count, \"The medicine count is mismatched at distributor\");\r\n        }\r\n        batch.itemState= State.toConsumers;\r\n    }\r\n}",
  "sourcePath": "C:\\Users\\admin\\rotract-hackathon\\truffle\\contracts\\medicine.sol",
  "compiler": {
    "name": "solc",
    "version": "0.5.16+commit.9c3226ce.Emscripten.clang"
  },
  "schemaVersion": "3.4.16",
  "updatedAt": "2023-09-17T02:57:56.224Z",
  "networkType": "ethereum",
  "devdoc": {
    "methods": {}
  },
  "userdoc": {
    "methods": {}
  }
}