{
  "contractName": "Tracking",
  "abi": [
    {
      "inputs": [],
      "payable": false,
      "stateMutability": "nonpayable",
      "type": "constructor"
    },
    {
      "anonymous": false,
      "inputs": [
        {
          "indexed": true,
          "internalType": "address",
          "name": "prod",
          "type": "address"
        },
        {
          "indexed": true,
          "internalType": "address",
          "name": "trans",
          "type": "address"
        },
        {
          "indexed": false,
          "internalType": "uint256",
          "name": "batch",
          "type": "uint256"
        }
      ],
      "name": "countMismatchDr",
      "type": "event"
    },
    {
      "anonymous": false,
      "inputs": [
        {
          "indexed": true,
          "internalType": "address",
          "name": "prod",
          "type": "address"
        },
        {
          "indexed": true,
          "internalType": "address",
          "name": "trans",
          "type": "address"
        },
        {
          "indexed": false,
          "internalType": "uint256",
          "name": "batch",
          "type": "uint256"
        }
      ],
      "name": "countMismatchTr",
      "type": "event"
    },
    {
      "anonymous": false,
      "inputs": [
        {
          "indexed": true,
          "internalType": "address",
          "name": "producer",
          "type": "address"
        },
        {
          "indexed": false,
          "internalType": "uint256",
          "name": "batchid",
          "type": "uint256"
        }
      ],
      "name": "manufacturedMedicine",
      "type": "event"
    },
    {
      "anonymous": false,
      "inputs": [
        {
          "indexed": true,
          "internalType": "address",
          "name": "prod",
          "type": "address"
        },
        {
          "indexed": true,
          "internalType": "address",
          "name": "trans",
          "type": "address"
        },
        {
          "indexed": false,
          "internalType": "uint256",
          "name": "batch",
          "type": "uint256"
        }
      ],
      "name": "sealBrokenDr",
      "type": "event"
    },
    {
      "anonymous": false,
      "inputs": [
        {
          "indexed": true,
          "internalType": "address",
          "name": "prod",
          "type": "address"
        },
        {
          "indexed": true,
          "internalType": "address",
          "name": "trans",
          "type": "address"
        },
        {
          "indexed": false,
          "internalType": "uint256",
          "name": "batch",
          "type": "uint256"
        }
      ],
      "name": "sealBrokenTr",
      "type": "event"
    },
    {
      "anonymous": false,
      "inputs": [
        {
          "indexed": true,
          "internalType": "address",
          "name": "userID",
          "type": "address"
        }
      ],
      "name": "userRegistered",
      "type": "event"
    },
    {
      "constant": true,
      "inputs": [
        {
          "internalType": "uint256",
          "name": "",
          "type": "uint256"
        }
      ],
      "name": "getBatchwithDID",
      "outputs": [
        {
          "internalType": "uint256",
          "name": "batchID",
          "type": "uint256"
        },
        {
          "internalType": "address",
          "name": "prodID",
          "type": "address"
        },
        {
          "internalType": "address",
          "name": "transID",
          "type": "address"
        },
        {
          "internalType": "address",
          "name": "distID",
          "type": "address"
        },
        {
          "internalType": "enum Tracking.State",
          "name": "itemState",
          "type": "uint8"
        },
        {
          "internalType": "string",
          "name": "medName",
          "type": "string"
        },
        {
          "internalType": "bool",
          "name": "sealOn",
          "type": "bool"
        },
        {
          "internalType": "uint256",
          "name": "timestamp",
          "type": "uint256"
        },
        {
          "internalType": "uint64",
          "name": "count",
          "type": "uint64"
        }
      ],
      "payable": false,
      "stateMutability": "view",
      "type": "function"
    },
    {
      "constant": true,
      "inputs": [
        {
          "internalType": "uint256",
          "name": "",
          "type": "uint256"
        }
      ],
      "name": "getBatchwithPID",
      "outputs": [
        {
          "internalType": "uint256",
          "name": "batchID",
          "type": "uint256"
        },
        {
          "internalType": "address",
          "name": "prodID",
          "type": "address"
        },
        {
          "internalType": "address",
          "name": "transID",
          "type": "address"
        },
        {
          "internalType": "address",
          "name": "distID",
          "type": "address"
        },
        {
          "internalType": "enum Tracking.State",
          "name": "itemState",
          "type": "uint8"
        },
        {
          "internalType": "string",
          "name": "medName",
          "type": "string"
        },
        {
          "internalType": "bool",
          "name": "sealOn",
          "type": "bool"
        },
        {
          "internalType": "uint256",
          "name": "timestamp",
          "type": "uint256"
        },
        {
          "internalType": "uint64",
          "name": "count",
          "type": "uint64"
        }
      ],
      "payable": false,
      "stateMutability": "view",
      "type": "function"
    },
    {
      "constant": true,
      "inputs": [
        {
          "internalType": "uint256",
          "name": "",
          "type": "uint256"
        }
      ],
      "name": "getBatchwithTID",
      "outputs": [
        {
          "internalType": "uint256",
          "name": "batchID",
          "type": "uint256"
        },
        {
          "internalType": "address",
          "name": "prodID",
          "type": "address"
        },
        {
          "internalType": "address",
          "name": "transID",
          "type": "address"
        },
        {
          "internalType": "address",
          "name": "distID",
          "type": "address"
        },
        {
          "internalType": "enum Tracking.State",
          "name": "itemState",
          "type": "uint8"
        },
        {
          "internalType": "string",
          "name": "medName",
          "type": "string"
        },
        {
          "internalType": "bool",
          "name": "sealOn",
          "type": "bool"
        },
        {
          "internalType": "uint256",
          "name": "timestamp",
          "type": "uint256"
        },
        {
          "internalType": "uint64",
          "name": "count",
          "type": "uint64"
        }
      ],
      "payable": false,
      "stateMutability": "view",
      "type": "function"
    },
    {
      "constant": true,
      "inputs": [
        {
          "internalType": "address",
          "name": "",
          "type": "address"
        },
        {
          "internalType": "uint256",
          "name": "",
          "type": "uint256"
        }
      ],
      "name": "ownerBatches",
      "outputs": [
        {
          "internalType": "uint256",
          "name": "batchID",
          "type": "uint256"
        },
        {
          "internalType": "address",
          "name": "prodID",
          "type": "address"
        },
        {
          "internalType": "address",
          "name": "transID",
          "type": "address"
        },
        {
          "internalType": "address",
          "name": "distID",
          "type": "address"
        },
        {
          "internalType": "enum Tracking.State",
          "name": "itemState",
          "type": "uint8"
        },
        {
          "internalType": "string",
          "name": "medName",
          "type": "string"
        },
        {
          "internalType": "bool",
          "name": "sealOn",
          "type": "bool"
        },
        {
          "internalType": "uint256",
          "name": "timestamp",
          "type": "uint256"
        },
        {
          "internalType": "uint64",
          "name": "count",
          "type": "uint64"
        }
      ],
      "payable": false,
      "stateMutability": "view",
      "type": "function"
    },
    {
      "constant": true,
      "inputs": [
        {
          "internalType": "address",
          "name": "",
          "type": "address"
        }
      ],
      "name": "userInfo",
      "outputs": [
        {
          "internalType": "address",
          "name": "userAdr",
          "type": "address"
        },
        {
          "internalType": "enum Tracking.Roles",
          "name": "role",
          "type": "uint8"
        }
      ],
      "payable": false,
      "stateMutability": "view",
      "type": "function"
    },
    {
      "constant": false,
      "inputs": [
        {
          "internalType": "address",
          "name": "_userID",
          "type": "address"
        },
        {
          "internalType": "enum Tracking.Roles",
          "name": "_role",
          "type": "uint8"
        }
      ],
      "name": "newUser",
      "outputs": [],
      "payable": false,
      "stateMutability": "nonpayable",
      "type": "function"
    },
    {
      "constant": false,
      "inputs": [
        {
          "internalType": "uint256",
          "name": "_batchID",
          "type": "uint256"
        },
        {
          "internalType": "string",
          "name": "_medName",
          "type": "string"
        },
        {
          "internalType": "bool",
          "name": "_sealOn",
          "type": "bool"
        },
        {
          "internalType": "uint64",
          "name": "_count",
          "type": "uint64"
        }
      ],
      "name": "addBatch",
      "outputs": [],
      "payable": false,
      "stateMutability": "nonpayable",
      "type": "function"
    },
    {
      "constant": true,
      "inputs": [
        {
          "internalType": "address",
          "name": "_prodID",
          "type": "address"
        }
      ],
      "name": "getBatchesOfProducer",
      "outputs": [
        {
          "components": [
            {
              "internalType": "uint256",
              "name": "batchID",
              "type": "uint256"
            },
            {
              "internalType": "address",
              "name": "prodID",
              "type": "address"
            },
            {
              "internalType": "address",
              "name": "transID",
              "type": "address"
            },
            {
              "internalType": "address",
              "name": "distID",
              "type": "address"
            },
            {
              "internalType": "enum Tracking.State",
              "name": "itemState",
              "type": "uint8"
            },
            {
              "internalType": "string",
              "name": "medName",
              "type": "string"
            },
            {
              "internalType": "bool",
              "name": "sealOn",
              "type": "bool"
            },
            {
              "internalType": "uint256",
              "name": "timestamp",
              "type": "uint256"
            },
            {
              "internalType": "uint64",
              "name": "count",
              "type": "uint64"
            }
          ],
          "internalType": "struct Tracking.Medicine[]",
          "name": "",
          "type": "tuple[]"
        }
      ],
      "payable": false,
      "stateMutability": "view",
      "type": "function"
    },
    {
      "constant": true,
      "inputs": [
        {
          "internalType": "uint256",
          "name": "_batchID",
          "type": "uint256"
        }
      ],
      "name": "getBatchInfo",
      "outputs": [
        {
          "components": [
            {
              "internalType": "uint256",
              "name": "batchID",
              "type": "uint256"
            },
            {
              "internalType": "address",
              "name": "prodID",
              "type": "address"
            },
            {
              "internalType": "address",
              "name": "transID",
              "type": "address"
            },
            {
              "internalType": "address",
              "name": "distID",
              "type": "address"
            },
            {
              "internalType": "enum Tracking.State",
              "name": "itemState",
              "type": "uint8"
            },
            {
              "internalType": "string",
              "name": "medName",
              "type": "string"
            },
            {
              "internalType": "bool",
              "name": "sealOn",
              "type": "bool"
            },
            {
              "internalType": "uint256",
              "name": "timestamp",
              "type": "uint256"
            },
            {
              "internalType": "uint64",
              "name": "count",
              "type": "uint64"
            }
          ],
          "internalType": "struct Tracking.Medicine",
          "name": "",
          "type": "tuple"
        }
      ],
      "payable": false,
      "stateMutability": "view",
      "type": "function"
    },
    {
      "constant": false,
      "inputs": [
        {
          "internalType": "uint256",
          "name": "_batchID",
          "type": "uint256"
        },
        {
          "internalType": "bool",
          "name": "_sealOn",
          "type": "bool"
        },
        {
          "internalType": "uint64",
          "name": "_count",
          "type": "uint64"
        }
      ],
      "name": "transportCheck",
      "outputs": [],
      "payable": false,
      "stateMutability": "nonpayable",
      "type": "function"
    },
    {
      "constant": false,
      "inputs": [
        {
          "internalType": "uint256",
          "name": "_batchID",
          "type": "uint256"
        },
        {
          "internalType": "bool",
          "name": "_sealOn",
          "type": "bool"
        },
        {
          "internalType": "uint64",
          "name": "_count",
          "type": "uint64"
        }
      ],
      "name": "distributorCheck",
      "outputs": [],
      "payable": false,
      "stateMutability": "nonpayable",
      "type": "function"
    }
  ],
  "bytecode": "0x608060405234801561001057600080fd5b5033600560006101000a81548173ffffffffffffffffffffffffffffffffffffffff021916908373ffffffffffffffffffffffffffffffffffffffff160217905550612b09806100616000396000f3fe608060405234801561001057600080fd5b50600436106100a95760003560e01c80637636a94c116100715780637636a94c146101af5780638e412ce4146101cb578063903f9b40146101e7578063c164f4641461021f578063d0f5c7711461023b578063fca686ce14610257576100a9565b8063127064e2146100ae5780631959a002146100de5780631a0058f51461010f5780635d39f3cb1461013f5780635e9b3ac114610177575b600080fd5b6100c860048036036100c39190810190612096565b61028f565b6040516100d59190612715565b60405180910390f35b6100f860048036036100f39190810190612096565b610560565b6040516101069291906126ec565b60405180910390f35b61012960048036036101249190810190612137565b6105b1565b60405161013691906127b7565b60405180910390f35b61015960048036036101549190810190612137565b610811565b60405161016e999897969594939291906127f4565b60405180910390f35b610191600480360361018c91908101906120fb565b610985565b6040516101a6999897969594939291906127f4565b60405180910390f35b6101c960048036036101c491908101906120bf565b610b13565b005b6101e560048036036101e09190810190612160565b610ca7565b005b61020160048036036101fc9190810190612137565b611192565b604051610216999897969594939291906127f4565b60405180910390f35b61023960048036036102349190810190612160565b611306565b005b610255600480360361025091908101906121af565b6117f1565b005b610271600480360361026c9190810190612137565b611ce0565b604051610286999897969594939291906127f4565b60405180910390f35b6060600160008373ffffffffffffffffffffffffffffffffffffffff1673ffffffffffffffffffffffffffffffffffffffff168152602001908152602001600020805480602002602001604051908101604052809291908181526020016000905b82821015610555578382906000526020600020906008020160405180610120016040529081600082015481526020016001820160009054906101000a900473ffffffffffffffffffffffffffffffffffffffff1673ffffffffffffffffffffffffffffffffffffffff1673ffffffffffffffffffffffffffffffffffffffff1681526020016002820160009054906101000a900473ffffffffffffffffffffffffffffffffffffffff1673ffffffffffffffffffffffffffffffffffffffff1673ffffffffffffffffffffffffffffffffffffffff1681526020016003820160009054906101000a900473ffffffffffffffffffffffffffffffffffffffff1673ffffffffffffffffffffffffffffffffffffffff1673ffffffffffffffffffffffffffffffffffffffff1681526020016003820160149054906101000a900460ff16600481111561043e57fe5b600481111561044957fe5b8152602001600482018054600181600116156101000203166002900480601f0160208091040260200160405190810160405280929190818152602001828054600181600116156101000203166002900480156104e65780601f106104bb576101008083540402835291602001916104e6565b820191906000526020600020905b8154815290600101906020018083116104c957829003601f168201915b505050505081526020016005820160009054906101000a900460ff16151515158152602001600682015481526020016007820160009054906101000a900467ffffffffffffffff1667ffffffffffffffff1667ffffffffffffffff1681525050815260200190600101906102f0565b505050509050919050565b60006020528060005260406000206000915090508060000160009054906101000a900473ffffffffffffffffffffffffffffffffffffffff16908060000160149054906101000a900460ff16905082565b6105b9611e54565b6002600083815260200190815260200160002060405180610120016040529081600082015481526020016001820160009054906101000a900473ffffffffffffffffffffffffffffffffffffffff1673ffffffffffffffffffffffffffffffffffffffff1673ffffffffffffffffffffffffffffffffffffffff1681526020016002820160009054906101000a900473ffffffffffffffffffffffffffffffffffffffff1673ffffffffffffffffffffffffffffffffffffffff1673ffffffffffffffffffffffffffffffffffffffff1681526020016003820160009054906101000a900473ffffffffffffffffffffffffffffffffffffffff1673ffffffffffffffffffffffffffffffffffffffff1673ffffffffffffffffffffffffffffffffffffffff1681526020016003820160149054906101000a900460ff16600481111561070257fe5b600481111561070d57fe5b8152602001600482018054600181600116156101000203166002900480601f0160208091040260200160405190810160405280929190818152602001828054600181600116156101000203166002900480156107aa5780601f1061077f576101008083540402835291602001916107aa565b820191906000526020600020905b81548152906001019060200180831161078d57829003601f168201915b505050505081526020016005820160009054906101000a900460ff16151515158152602001600682015481526020016007820160009054906101000a900467ffffffffffffffff1667ffffffffffffffff1667ffffffffffffffff16815250509050919050565b60036020528060005260406000206000915090508060000154908060010160009054906101000a900473ffffffffffffffffffffffffffffffffffffffff16908060020160009054906101000a900473ffffffffffffffffffffffffffffffffffffffff16908060030160009054906101000a900473ffffffffffffffffffffffffffffffffffffffff16908060030160149054906101000a900460ff1690806004018054600181600116156101000203166002900480601f0160208091040260200160405190810160405280929190818152602001828054600181600116156101000203166002900480156109485780601f1061091d57610100808354040283529160200191610948565b820191906000526020600020905b81548152906001019060200180831161092b57829003601f168201915b5050505050908060050160009054906101000a900460ff16908060060154908060070160009054906101000a900467ffffffffffffffff16905089565b6001602052816000526040600020818154811061099e57fe5b9060005260206000209060080201600091509150508060000154908060010160009054906101000a900473ffffffffffffffffffffffffffffffffffffffff16908060020160009054906101000a900473ffffffffffffffffffffffffffffffffffffffff16908060030160009054906101000a900473ffffffffffffffffffffffffffffffffffffffff16908060030160149054906101000a900460ff1690806004018054600181600116156101000203166002900480601f016020809104026020016040519081016040528092919081815260200182805460018160011615610100020316600290048015610ad65780601f10610aab57610100808354040283529160200191610ad6565b820191906000526020600020905b815481529060010190602001808311610ab957829003601f168201915b5050505050908060050160009054906101000a900460ff16908060060154908060070160009054906101000a900467ffffffffffffffff16905089565b3373ffffffffffffffffffffffffffffffffffffffff16600560009054906101000a900473ffffffffffffffffffffffffffffffffffffffff1673ffffffffffffffffffffffffffffffffffffffff1614610b6d57600080fd5b610b75611ef9565b60405180604001604052808473ffffffffffffffffffffffffffffffffffffffff168152602001836003811115610ba857fe5b8152509050806000808573ffffffffffffffffffffffffffffffffffffffff1673ffffffffffffffffffffffffffffffffffffffff16815260200190815260200160002060008201518160000160006101000a81548173ffffffffffffffffffffffffffffffffffffffff021916908373ffffffffffffffffffffffffffffffffffffffff16021790555060208201518160000160146101000a81548160ff02191690836003811115610c5757fe5b02179055509050508273ffffffffffffffffffffffffffffffffffffffff167fbccbc36cc6dac185f9905c12b69a310c4d0b82bdfbc3bbbb8e3d2ff33c8176b060405160405180910390a2505050565b60016003811115610cb457fe5b6000803373ffffffffffffffffffffffffffffffffffffffff1673ffffffffffffffffffffffffffffffffffffffff16815260200190815260200160002060000160149054906101000a900460ff166003811115610d0e57fe5b14610d1857600080fd5b610d20611e54565b6002600085815260200190815260200160002060405180610120016040529081600082015481526020016001820160009054906101000a900473ffffffffffffffffffffffffffffffffffffffff1673ffffffffffffffffffffffffffffffffffffffff1673ffffffffffffffffffffffffffffffffffffffff1681526020016002820160009054906101000a900473ffffffffffffffffffffffffffffffffffffffff1673ffffffffffffffffffffffffffffffffffffffff1673ffffffffffffffffffffffffffffffffffffffff1681526020016003820160009054906101000a900473ffffffffffffffffffffffffffffffffffffffff1673ffffffffffffffffffffffffffffffffffffffff1673ffffffffffffffffffffffffffffffffffffffff1681526020016003820160149054906101000a900460ff166004811115610e6957fe5b6004811115610e7457fe5b8152602001600482018054600181600116156101000203166002900480601f016020809104026020016040519081016040528092919081815260200182805460018160011615610100020316600290048015610f115780601f10610ee657610100808354040283529160200191610f11565b820191906000526020600020905b815481529060010190602001808311610ef457829003601f168201915b505050505081526020016005820160009054906101000a900460ff16151515158152602001600682015481526020016007820160009054906101000a900467ffffffffffffffff1667ffffffffffffffff1667ffffffffffffffff16815250509050600181608001906004811115610f8557fe5b90816004811115610f9257fe5b8152505033816040019073ffffffffffffffffffffffffffffffffffffffff16908173ffffffffffffffffffffffffffffffffffffffff168152505082611084573373ffffffffffffffffffffffffffffffffffffffff16816020015173ffffffffffffffffffffffffffffffffffffffff167f838ea9483c8ccf88b5b1e9e4ea5cb3e0463e0a3668eb4fcada1f98992e2a5fe08660405161103491906127d9565b60405180910390a36001151583151514611083576040517f08c379a000000000000000000000000000000000000000000000000000000000815260040161107a90612777565b60405180910390fd5b5b80610100015167ffffffffffffffff168267ffffffffffffffff1614611169573373ffffffffffffffffffffffffffffffffffffffff16816020015173ffffffffffffffffffffffffffffffffffffffff167f5d48384949d505af6c9249b5bc8790507dc633c75f8748aca706a12e5393bdeb8660405161110591906127d9565b60405180910390a380610100015167ffffffffffffffff168267ffffffffffffffff1614611168576040517f08c379a000000000000000000000000000000000000000000000000000000000815260040161115f90612737565b60405180910390fd5b5b60028160800190600481111561117b57fe5b9081600481111561118857fe5b8152505050505050565b60046020528060005260406000206000915090508060000154908060010160009054906101000a900473ffffffffffffffffffffffffffffffffffffffff16908060020160009054906101000a900473ffffffffffffffffffffffffffffffffffffffff16908060030160009054906101000a900473ffffffffffffffffffffffffffffffffffffffff16908060030160149054906101000a900460ff1690806004018054600181600116156101000203166002900480601f0160208091040260200160405190810160405280929190818152602001828054600181600116156101000203166002900480156112c95780601f1061129e576101008083540402835291602001916112c9565b820191906000526020600020905b8154815290600101906020018083116112ac57829003601f168201915b5050505050908060050160009054906101000a900460ff16908060060154908060070160009054906101000a900467ffffffffffffffff16905089565b6002600381111561131357fe5b6000803373ffffffffffffffffffffffffffffffffffffffff1673ffffffffffffffffffffffffffffffffffffffff16815260200190815260200160002060000160149054906101000a900460ff16600381111561136d57fe5b1461137757600080fd5b61137f611e54565b6002600085815260200190815260200160002060405180610120016040529081600082015481526020016001820160009054906101000a900473ffffffffffffffffffffffffffffffffffffffff1673ffffffffffffffffffffffffffffffffffffffff1673ffffffffffffffffffffffffffffffffffffffff1681526020016002820160009054906101000a900473ffffffffffffffffffffffffffffffffffffffff1673ffffffffffffffffffffffffffffffffffffffff1673ffffffffffffffffffffffffffffffffffffffff1681526020016003820160009054906101000a900473ffffffffffffffffffffffffffffffffffffffff1673ffffffffffffffffffffffffffffffffffffffff1673ffffffffffffffffffffffffffffffffffffffff1681526020016003820160149054906101000a900460ff1660048111156114c857fe5b60048111156114d357fe5b8152602001600482018054600181600116156101000203166002900480601f0160208091040260200160405190810160405280929190818152602001828054600181600116156101000203166002900480156115705780601f1061154557610100808354040283529160200191611570565b820191906000526020600020905b81548152906001019060200180831161155357829003601f168201915b505050505081526020016005820160009054906101000a900460ff16151515158152602001600682015481526020016007820160009054906101000a900467ffffffffffffffff1667ffffffffffffffff1667ffffffffffffffff168152505090506003816080019060048111156115e457fe5b908160048111156115f157fe5b8152505033816060019073ffffffffffffffffffffffffffffffffffffffff16908173ffffffffffffffffffffffffffffffffffffffff1681525050826116e3573373ffffffffffffffffffffffffffffffffffffffff16816020015173ffffffffffffffffffffffffffffffffffffffff167ff2171d69589e24ca14d3bac8f65decb8eb0495880d97c3b41619445b26e35a308660405161169391906127d9565b60405180910390a360011515831515146116e2576040517f08c379a00000000000000000000000000000000000000000000000000000000081526004016116d990612757565b60405180910390fd5b5b80610100015167ffffffffffffffff168267ffffffffffffffff16146117c8573373ffffffffffffffffffffffffffffffffffffffff16816020015173ffffffffffffffffffffffffffffffffffffffff167fb2eb0701da853b6279c2d390de0c60b266f0ee0d080f3b1add4d7b7135ba6b2f8660405161176491906127d9565b60405180910390a380610100015167ffffffffffffffff168267ffffffffffffffff16146117c7576040517f08c379a00000000000000000000000000000000000000000000000000000000081526004016117be90612797565b60405180910390fd5b5b6004816080019060048111156117da57fe5b908160048111156117e757fe5b8152505050505050565b600060038111156117fe57fe5b6000803373ffffffffffffffffffffffffffffffffffffffff1673ffffffffffffffffffffffffffffffffffffffff16815260200190815260200160002060000160149054906101000a900460ff16600381111561185857fe5b1461186257600080fd5b61186a611e54565b6040518061012001604052808681526020013373ffffffffffffffffffffffffffffffffffffffff168152602001600073ffffffffffffffffffffffffffffffffffffffff168152602001600073ffffffffffffffffffffffffffffffffffffffff168152602001600060048111156118df57fe5b815260200185815260200184151581526020014281526020018367ffffffffffffffff168152509050600160003373ffffffffffffffffffffffffffffffffffffffff1673ffffffffffffffffffffffffffffffffffffffff16815260200190815260200160002081908060018154018082558091505090600182039060005260206000209060080201600090919290919091506000820151816000015560208201518160010160006101000a81548173ffffffffffffffffffffffffffffffffffffffff021916908373ffffffffffffffffffffffffffffffffffffffff16021790555060408201518160020160006101000a81548173ffffffffffffffffffffffffffffffffffffffff021916908373ffffffffffffffffffffffffffffffffffffffff16021790555060608201518160030160006101000a81548173ffffffffffffffffffffffffffffffffffffffff021916908373ffffffffffffffffffffffffffffffffffffffff16021790555060808201518160030160146101000a81548160ff02191690836004811115611a7657fe5b021790555060a0820151816004019080519060200190611a97929190611f34565b5060c08201518160050160006101000a81548160ff02191690831515021790555060e082015181600601556101008201518160070160006101000a81548167ffffffffffffffff021916908367ffffffffffffffff16021790555050505080600260008781526020019081526020016000206000820151816000015560208201518160010160006101000a81548173ffffffffffffffffffffffffffffffffffffffff021916908373ffffffffffffffffffffffffffffffffffffffff16021790555060408201518160020160006101000a81548173ffffffffffffffffffffffffffffffffffffffff021916908373ffffffffffffffffffffffffffffffffffffffff16021790555060608201518160030160006101000a81548173ffffffffffffffffffffffffffffffffffffffff021916908373ffffffffffffffffffffffffffffffffffffffff16021790555060808201518160030160146101000a81548160ff02191690836004811115611c0c57fe5b021790555060a0820151816004019080519060200190611c2d929190611f34565b5060c08201518160050160006101000a81548160ff02191690831515021790555060e082015181600601556101008201518160070160006101000a81548167ffffffffffffffff021916908367ffffffffffffffff1602179055509050503373ffffffffffffffffffffffffffffffffffffffff167fbb39e08324d3be4059f7da30931e63b821bab15345b175e9db265f986ffb65e186604051611cd191906127d9565b60405180910390a25050505050565b60026020528060005260406000206000915090508060000154908060010160009054906101000a900473ffffffffffffffffffffffffffffffffffffffff16908060020160009054906101000a900473ffffffffffffffffffffffffffffffffffffffff16908060030160009054906101000a900473ffffffffffffffffffffffffffffffffffffffff16908060030160149054906101000a900460ff1690806004018054600181600116156101000203166002900480601f016020809104026020016040519081016040528092919081815260200182805460018160011615610100020316600290048015611e175780601f10611dec57610100808354040283529160200191611e17565b820191906000526020600020905b815481529060010190602001808311611dfa57829003601f168201915b5050505050908060050160009054906101000a900460ff16908060060154908060070160009054906101000a900467ffffffffffffffff16905089565b60405180610120016040528060008152602001600073ffffffffffffffffffffffffffffffffffffffff168152602001600073ffffffffffffffffffffffffffffffffffffffff168152602001600073ffffffffffffffffffffffffffffffffffffffff16815260200160006004811115611ecb57fe5b81526020016060815260200160001515815260200160008152602001600067ffffffffffffffff1681525090565b6040518060400160405280600073ffffffffffffffffffffffffffffffffffffffff16815260200160006003811115611f2e57fe5b81525090565b828054600181600116156101000203166002900490600052602060002090601f016020900481019282601f10611f7557805160ff1916838001178555611fa3565b82800160010185558215611fa3579182015b82811115611fa2578251825591602001919060010190611f87565b5b509050611fb09190611fb4565b5090565b611fd691905b80821115611fd2576000816000905550600101611fba565b5090565b90565b600081359050611fe881612a5a565b92915050565b600081359050611ffd81612a71565b92915050565b60008135905061201281612a88565b92915050565b600082601f83011261202957600080fd5b813561203c612037826128b5565b612888565b9150808252602083016020830185838301111561205857600080fd5b6120638382846129ed565b50505092915050565b60008135905061207b81612a98565b92915050565b60008135905061209081612aaf565b92915050565b6000602082840312156120a857600080fd5b60006120b684828501611fd9565b91505092915050565b600080604083850312156120d257600080fd5b60006120e085828601611fd9565b92505060206120f185828601612003565b9150509250929050565b6000806040838503121561210e57600080fd5b600061211c85828601611fd9565b925050602061212d8582860161206c565b9150509250929050565b60006020828403121561214957600080fd5b60006121578482850161206c565b91505092915050565b60008060006060848603121561217557600080fd5b60006121838682870161206c565b935050602061219486828701611fee565b92505060406121a586828701612081565b9150509250925092565b600080600080608085870312156121c557600080fd5b60006121d38782880161206c565b945050602085013567ffffffffffffffff8111156121f057600080fd5b6121fc87828801612018565b935050604061220d87828801611fee565b925050606061221e87828801612081565b91505092959194509250565b600061223683836125eb565b905092915050565b61224781612947565b82525050565b61225681612947565b82525050565b6000612267826128f1565b6122718185612914565b935083602082028501612283856128e1565b8060005b858110156122bf57848403895281516122a0858261222a565b94506122ab83612907565b925060208a01995050600181019050612287565b50829750879550505050505092915050565b6122da81612959565b82525050565b6122e981612959565b82525050565b6122f8816129c9565b82525050565b612307816129db565b82525050565b612316816129db565b82525050565b6000612327826128fc565b6123318185612925565b93506123418185602086016129fc565b61234a81612a2f565b840191505092915050565b6000612360826128fc565b61236a8185612936565b935061237a8185602086016129fc565b61238381612a2f565b840191505092915050565b600061239b603083612936565b91507f546865206d65646963696e6520636f756e7420697320666f756e642077726f6e60008301527f67206174207472616e73706f72746f72000000000000000000000000000000006020830152604082019050919050565b6000612401602383612936565b91507f5365616c20697320666f756e642062726f6b656e20627920446973747269627560008301527f746f7200000000000000000000000000000000000000000000000000000000006020830152604082019050919050565b6000612467602383612936565b91507f5365616c20697320666f756e642062726f6b656e206279205472616e73706f7260008301527f74657200000000000000000000000000000000000000000000000000000000006020830152604082019050919050565b60006124cd602f83612936565b91507f546865206d65646963696e6520636f756e74206973206d69736d61746368656460008301527f206174206469737472696275746f7200000000000000000000000000000000006020830152604082019050919050565b60006101208301600083015161253f60008601826126b0565b506020830151612552602086018261223e565b506040830151612565604086018261223e565b506060830151612578606086018261223e565b50608083015161258b60808601826122fe565b5060a083015184820360a08601526125a3828261231c565b91505060c08301516125b860c08601826122d1565b5060e08301516125cb60e08601826126b0565b506101008301516125e06101008601826126ce565b508091505092915050565b60006101208301600083015161260460008601826126b0565b506020830151612617602086018261223e565b50604083015161262a604086018261223e565b50606083015161263d606086018261223e565b50608083015161265060808601826122fe565b5060a083015184820360a0860152612668828261231c565b91505060c083015161267d60c08601826122d1565b5060e083015161269060e08601826126b0565b506101008301516126a56101008601826126ce565b508091505092915050565b6126b9816129ab565b82525050565b6126c8816129ab565b82525050565b6126d7816129b5565b82525050565b6126e6816129b5565b82525050565b6000604082019050612701600083018561224d565b61270e60208301846122ef565b9392505050565b6000602082019050818103600083015261272f818461225c565b905092915050565b600060208201905081810360008301526127508161238e565b9050919050565b60006020820190508181036000830152612770816123f4565b9050919050565b600060208201905081810360008301526127908161245a565b9050919050565b600060208201905081810360008301526127b0816124c0565b9050919050565b600060208201905081810360008301526127d18184612526565b905092915050565b60006020820190506127ee60008301846126bf565b92915050565b60006101208201905061280a600083018c6126bf565b612817602083018b61224d565b612824604083018a61224d565b612831606083018961224d565b61283e608083018861230d565b81810360a08301526128508187612355565b905061285f60c08301866122e0565b61286c60e08301856126bf565b61287a6101008301846126dd565b9a9950505050505050505050565b6000604051905081810181811067ffffffffffffffff821117156128ab57600080fd5b8060405250919050565b600067ffffffffffffffff8211156128cc57600080fd5b601f19601f8301169050602081019050919050565b6000819050602082019050919050565b600081519050919050565b600081519050919050565b6000602082019050919050565b600082825260208201905092915050565b600082825260208201905092915050565b600082825260208201905092915050565b60006129528261298b565b9050919050565b60008115159050919050565b600081905061297382612a40565b919050565b600081905061298682612a4d565b919050565b600073ffffffffffffffffffffffffffffffffffffffff82169050919050565b6000819050919050565b600067ffffffffffffffff82169050919050565b60006129d482612965565b9050919050565b60006129e682612978565b9050919050565b82818337600083830152505050565b60005b83811015612a1a5780820151818401526020810190506129ff565b83811115612a29576000848401525b50505050565b6000601f19601f8301169050919050565b60048110612a4a57fe5b50565b60058110612a5757fe5b50565b612a6381612947565b8114612a6e57600080fd5b50565b612a7a81612959565b8114612a8557600080fd5b50565b60048110612a9557600080fd5b50565b612aa1816129ab565b8114612aac57600080fd5b50565b612ab8816129b5565b8114612ac357600080fd5b5056fea365627a7a72315820c16c1f5a4ae1b6eadd58e1adb371725b81640f3f39240a38dd22666e1086b59b6c6578706572696d656e74616cf564736f6c63430005100040",
  "source": "// SPDX-License-Identifier: MIT\r\n\r\npragma experimental ABIEncoderV2;\r\n\r\ncontract Tracking{\r\n\r\n    enum State{\r\n        produced,\r\n        receivedByTr,\r\n        inTransport,\r\n        receivedByDr,\r\n        toConsumers\r\n    }\r\n\r\n    enum Roles{\r\n        manufacturer,\r\n        transport,\r\n        distributor,\r\n        noRole\r\n    }\r\n\r\n\r\n    struct user {\r\n        address userAdr;\r\n        Roles role;\r\n    }\r\n\r\n    struct Medicine{\r\n        uint256 batchID;\r\n        address prodID;\r\n        address transID;\r\n        address distID;\r\n        State itemState;\r\n        string medName;\r\n        bool sealOn;\r\n        uint256 timestamp;\r\n        uint64 count;\r\n    }\r\n\r\n\r\n    mapping(address => user) public userInfo;\r\n    mapping(address => Medicine[]) public ownerBatches;\r\n    mapping(uint256 => Medicine) public getBatchwithPID;\r\n    mapping(uint256 => Medicine) public getBatchwithTID;\r\n    mapping(uint256 => Medicine) public getBatchwithDID;\r\n\r\n    address Owner;\r\n\r\n\r\n    constructor() public {\r\n        Owner = msg.sender;\r\n    }\r\n\r\n\r\n    modifier onlyOwner() {\r\n        require(Owner == msg.sender);\r\n        _;\r\n    }\r\n\r\n    modifier checkUser(address addr) {\r\n        require(addr == msg.sender);\r\n        _;\r\n    }\r\n\r\n    modifier onlyManufacturer(){\r\n        require(userInfo[msg.sender].role == Roles.manufacturer);\r\n        _;\r\n    }\r\n\r\n    modifier onlyTransport(){\r\n        require(userInfo[msg.sender].role == Roles.transport);\r\n        _;\r\n    }\r\n\r\n    modifier onlyDistributor(){\r\n        require(userInfo[msg.sender].role == Roles.distributor);\r\n        _;\r\n    }\r\n\r\n    modifier checkState(uint256 _batchID, State _state){\r\n        Medicine memory batch=getBatchwithPID[_batchID];\r\n        require(getBatchwithPID[_batchID].itemState == _state);\r\n        _;\r\n    }\r\n\r\n\r\n    event userRegistered(address indexed userID);\r\n    event manufacturedMedicine(address indexed producer, uint256 batchid);\r\n    event sealBrokenTr(address indexed prod, address indexed trans, uint256 batch);\r\n    event countMismatchTr(address indexed prod, address indexed trans, uint256 batch);\r\n    event sealBrokenDr(address indexed prod, address indexed trans, uint256 batch);\r\n    event countMismatchDr(address indexed prod, address indexed trans, uint256 batch);\r\n\r\n\r\n    function newUser (address _userID, Roles _role) public onlyOwner {\r\n        user memory newser = user({\r\n        userAdr : _userID,\r\n        role : _role\r\n        });\r\n        userInfo[_userID] = newser;\r\n        emit userRegistered(_userID);\r\n    }\r\n\r\n    function addBatch(uint256 _batchID, string memory _medName, bool _sealOn,uint64 _count) public onlyManufacturer {\r\n        Medicine memory newMedicine = Medicine({\r\n        batchID: _batchID,\r\n        prodID: msg.sender,\r\n        transID: address(0),\r\n        distID: address(0),\r\n        itemState: State.produced,\r\n        medName: _medName,\r\n        sealOn: _sealOn,\r\n        timestamp: block.timestamp,\r\n        count: _count\r\n        });\r\n        ownerBatches[msg.sender].push(newMedicine);\r\n        getBatchwithPID[_batchID]=newMedicine;\r\n        emit manufacturedMedicine(msg.sender,_batchID);\r\n    }\r\n\r\n    function getBatchesOfProducer(address _prodID) public view returns(Medicine[] memory){\r\n        return ownerBatches[_prodID];\r\n    }\r\n\r\n    function getBatchInfo(uint256 _batchID) public view returns (Medicine memory){\r\n        return getBatchwithPID[_batchID];\r\n    }\r\n\r\n\r\n\r\n    function transportCheck (uint256 _batchID, bool _sealOn, uint64 _count) onlyTransport public {\r\n\r\n        Medicine memory batch=getBatchwithPID[_batchID];\r\n        batch.itemState = State.receivedByTr;\r\n        batch.transID = msg.sender;\r\n        if(!_sealOn){\r\n            emit sealBrokenTr(batch.prodID, msg.sender, _batchID);\r\n            require(_sealOn==true, \"Seal is found broken by Transporter\");\r\n        }\r\n\r\n        if(_count != batch.count){\r\n            emit countMismatchTr(batch.prodID, msg.sender, _batchID);\r\n            require(_count == batch.count, \"The medicine count is found wrong at transportor\");\r\n        }\r\n        batch.itemState= State.inTransport;\r\n    }\r\n\r\n\r\n    function distributorCheck(uint256 _batchID, bool _sealOn, uint64 _count) onlyDistributor public {\r\n\r\n        Medicine memory batch=getBatchwithPID[_batchID];\r\n        batch.itemState = State.receivedByDr;\r\n        batch.distID = msg.sender;\r\n        if(!_sealOn){\r\n            emit sealBrokenDr(batch.prodID, msg.sender, _batchID);\r\n            require(_sealOn==true, \"Seal is found broken by Distributor\");\r\n        }\r\n\r\n        if(_count != batch.count){\r\n            emit countMismatchDr(batch.prodID, msg.sender, _batchID);\r\n            require(_count == batch.count, \"The medicine count is mismatched at distributor\");\r\n        }\r\n        batch.itemState= State.toConsumers;\r\n    }\r\n}",
  "sourcePath": "C:\\Users\\admin\\rotract-hackathon\\truffle\\contracts\\medicine.sol",
  "compiler": {
    "name": "solc",
    "version": "0.5.16+commit.9c3226ce.Emscripten.clang"
  },
  "schemaVersion": "3.4.16",
  "updatedAt": "2023-09-16T21:54:53.819Z",
  "networkType": "ethereum",
  "devdoc": {
    "methods": {}
  },
  "userdoc": {
    "methods": {}
  }
}